:040000000C942A0032
:100004000C9400000C9400000C9400000C9400006C
:100014000C9400000C9400000C9400000C9400005C
:100024000C9400000C9400000C9400000C9400004C
:100034000C9400000C9448000C9400000C940000F4
:100044000C9400000C9400000C9400000C9400002C
:10005400F894EE27ECBBF1E0FBBFEBBFE5BFF8E1A2
:10006400F1BDE1BD8DE0A2E0BB27ED938A95E9F7F0
:1000740080E094E0A0E6ED930197E9F7EFE5EDBFAA
:10008400E4E0EEBFC0E6D1E00C9472000A926A93F9
:100094007A93AA93BA93EA93FA93EFB7EA930E94F6
:1000A400B00014B105B1E02FF0E00E94AB00BF0135
:1000B400A12FB0E0E6E00E94A200E62BF72B9F01FF
:1000C40025BBECEEE6B90E94B5002496E991EFBF9A
:1000D400F991E991B991A99179916991099018954A
:1000E400E0E0EBBBEABBE8BBE7BBE5BBEFEFE4BB9F
:1000F400E0E0E2BBE1BBE3BFE2BFECBFEFBDEEBDBE
:10010400EDBDECBDE7BDE6BDEBBDEABDE9BDE8BDB7
:10011400E2BDE5BDE4BDE3BDE5BFE4BFE9BFEAB9C7
:10012400E0E8E8B9E0E0E0BFE1E6E7B9ECEEE6B923
:10013400E0E0EDB9E6BFE1E0EFBF7894FFCFFFCF99
:10014400EE230E2EFD0121F0F595E7950A94E1F7D3
:100154000895EE0FFF1FEE0FFF1F08953A932A93A1
:100164001A930A9308953B812A811981088108957D
:00000001FF
